:100000005C460020AD700000117100007B540000C0
:10001000117100001171000011710000000000005A
:10002000000000000000000000000000117100004E
:100030001171000000000000E95D00007571000012
:1000400080B483B000AF0346FB7107F10C07BD46D7
:1000500080BC704780B500AF06F004FD114806F083
:1000600077FB4FF00000104906F036FB4FF08000A0
:100070000D4906F031FB4FF000004FF0400106F053
:1000800009FB4FF080004FF0400106F003FB4FF0FA
:1000900000000649064A02F095FA4FF0010318469F
:1000A00080BD00BF4100000051240000355D00000C
:1000B0008000002080B485B000AF78602D4B1B68B5
:1000C0001A467B681B88D318FB607A68FB689A42E3
:1000D00022D0FB681B79002B1ED1FA68264B1B68C7
:1000E0009A4219D0254B1A68FB689A4202D1234BD9
:1000F0007A681A60FB681A887B681A801D4B1B6837
:100100001A46FB681B88D3187A6891B2194A12689C
:1001100092B28A1A92B25A80164B1B681A467B68B2
:100120005B88D318BB60BA687B689A421DD0BB68F5
:100130001B79002B19D1114B1A687B689A4202D1A6
:100140000E4BBA681A607B681A88BB681A80094B24
:100150001B681A467B681B88D318BA6891B2054A97
:10016000126892B28A1A92B25A8007F11407BD46F9
:1001700080BC70479C080020A0080020A408002034
:1001800080B584B000AF78607B68002B03D12D4828
:1001900005F0B4FB52E07A682B4B1B689A427A68F0
:1001A000294B1B689A4204D37A68284B1B689A42F1
:1001B00012D3274805F0A2FB05F08EFBB860254B53
:1001C000B3F8983003F101039AB2224BA3F89820B8
:1001D000B86805F089FB31E01F4B1B7818464FF0DB
:1001E000000105F07FFA7B68A3F10803FB60FB6860
:1001F0004FF000021A71194B1B68FA689A4202D23A
:10020000164BFA681A60134BB3F89220FB6899B248
:100210000D4B1B689BB2CB1A99B2FB681B88CB1A9B
:100220009BB2D3189AB20B4BA3F89220F868FFF751
:1002300041FF094B1B78184605F0AAFA07F1100791
:10024000BD4680BD809000009C080020A0080020D2
:10025000A490000028410020A8080020A408002045
:1002600080B586B000AF0346FB80FB88002B02D12F
:100270004FF00003FDE0FB8803F103039BB223F082
:100280000303FB80FB880B2B02D84FF00C03FB8091
:10029000FB88B3F5006F02D94FF00003E9E0774B1C
:1002A0001B7818464FF0000105F01CFA744B1B68D0
:1002B0009AB2744B1B689BB2D31AFB82BCE0714BA1
:1002C0001B681A46FB8AD3183B613B691B79002BDC
:1002D00040F0AB803B691B881A46FB8AD31AA3F116
:1002E0000802FB889A42C0F0A0803B691B881A462E
:1002F000FB8AD31AA3F10802FB8803F114039A4284
:1003000046D3FA8AFB88D3189BB203F10803FB811A
:100310005C4B1B681A46FB89D318BB60BB684FF067
:1003200000021A713B691A88BB681A80BB68FA8A96
:100330005A803B69FA891A803B694FF001021A71B1
:10034000BB681B88B3F5006F07D04E4B1B681A467D
:10035000BB681B88D318FA895A804B4BB3F892209C
:10036000FB88D3189BB203F108039AB2464BA3F85B
:100370009220454BB3F89420434BB3F892309A4205
:100380002BD2414BB3F892203F4BA3F8942024E0AA
:100390003B694FF001021A713B4BB3F892203B6965
:1003A0001988384B1B6898B23B699BB2C31A9BB241
:1003B000CB189BB2D3189AB2334BA3F89220324B8E
:1003C000B3F89420304BB3F892309A4205D22E4BBA
:1003D000B3F892202C4BA3F89420294B1B683A6960
:1003E0009A4219D108E0274B1B681A46244B1B6818
:1003F0001B88D218224B1A60214B1B681B79002BDB
:1004000005D01F4B1A68214B1B689A42EBD11C4B3D
:100410001A681E4B1B689A42184B1B78184605F049
:10042000B7F93B6903F1080323E0164B1B681A4632
:10043000FB8AD3181B88FB82FA8AFB88C3F500630A
:100440009A42FFF63CAFFB881BB21148194605F0F3
:1004500055FA0D4BB3F8963003F101039AB20A4BEB
:10046000A3F89620054B1B78184605F091F94FF03C
:100470000003184607F11807BD4680BDA8080020F4
:10048000A40800209C08002028410020A00800208B
:10049000E090000080B400AF0E4A0F4B1A600D4B85
:1004A00003F1C8020C4B5A600A4A0C4B1A600B4B02
:1004B0001B684FF000021A60084B1B684FF00002E7
:1004C0005A60064B1B684FF000029A60BD4680BC24
:1004D000704700BFAC080020780900207409002094
:1004E00080B500AF00F056FE084B1B7803F1010306
:1004F000DAB2064B1A70054B1B7803F00103DBB22E
:10050000002B01D000F09EFB80BD00BF80090020C1
:1005100080B584B000AF7860604805F0EFF97B6883
:100520001B7C184601F084F97B681B7C072B00F2CA
:10053000988001A252F823F059050000C30500007D
:10054000E305000003060000230600006306000028
:1005500063060000430600004FF00003FB73504B9E
:100560001A687B689A4205D14D4B1B68DA684C4B80
:100570001A6019E04A4B1A684A4B1A6010E0494B5E
:100580001B68DA687B689A4205D1464B1B687A681B
:10059000D268DA6008E0434B1B68DA68414B1A60A6
:1005A000404B1B68002BEAD17B684FF00002DA60F9
:1005B0004FF00200796801F09DFE4FF000037B6070
:1005C0005BE04FF00003FB733748796801F0C0F837
:1005D0004FF00300796801F08DFE4FF000037B605F
:1005E0004BE04FF00003FB733048796801F0B0F83E
:1005F0004FF00200796801F07DFE4FF000037B6050
:100600003BE078684FF0010107F0C6F90346FB7341
:1006100097F90F30002B2BD17B684FF005021A742D
:100620002BE078684FF0010107F0B6F90346FB7341
:1006300097F90F30002B1DD17B684FF005021A741B
:100640001BE078684FF0010107F0A6F90346FB7341
:1006500097F90F30002B0FD17B684FF009021A7405
:100660000BE04FF00003FB734FF000037B6004E0EE
:1006700000BF02E000BF00E000BF7B68002B06D097
:1006800097F90F30002B02D1786807F00FFEFB7B43
:100690005BB2184607F11007BD4680BD9C91000073
:1006A000E43D0020E03D0020DC3D0020D43D002062
:1006B00080B58CB002AF786039607B681B7C0A2BF8
:1006C00009D13948796801F043F84FF002007968A0
:1006D00001F010FE64E07B689B6D7B627B685B6A67
:1006E0003B627B68002B02D07B681B6801E04FF007
:1006F0000003FB607B6803F10403002B02D07B68DE
:100700005B6801E04FF000033B617B681B8BFB8360
:100710007B681B8CBB837B68D3F89430BB617B68A0
:100720005B697B612148796801F012F87B689B6FF7
:10073000002B04D07B689B6F184600F091FD7B680E
:100740005B6F002B04D07B685B6F184600F088FD60
:100750007B68DB6F002B04D07B68DB6F184600F0F2
:100760007FFD4FF00200796801F0C4FDBB69002BEA
:1007700004D0BB6978696FF0040198473B68002B8F
:100780000ED00B4805F0BAF807F10C0207F1100380
:10079000F98B0091B98B0191786A396A08F068F891
:1007A00007F12807BD4680BDE83D0020D43D00206C
:1007B000B491000080B586B000AFF860B960134610
:1007C000FB80FB681B7C002B02D04FF0F303AEE0F4
:1007D000FB88002B03D100F0DBF90346FB80574B6D
:1007E0001B687B611EE07B691B8BFA889A4216D1DD
:1007F0007B69002B10D07B691B68002B0CD0BB6879
:10080000002B09D0BB681B68002B05D07B691A68D8
:10081000BB681B689A4202D14FF0F50387E07B6901
:10082000DB687B617B69002BDDD1454B1B687B61FD
:100830001EE07B691B8BFA889A4216D17B69002BDC
:1008400010D07B691B68002B0CD0BB68002B09D033
:10085000BB681B68002B05D07B691A68BB681B68E6
:100860009A4202D14FF0F50361E07B69DB687B615E
:100870007B69002BDDD1334B1B687B611EE07B69FC
:100880001B8BFA889A4216D17B69002B10D07B69AA
:100890001B68002B0CD0BB68002B09D0BB681B6801
:1008A000002B05D07B691A68BB681B689A4202D18D
:1008B0004FF0F5033BE07B69DB687B617B69002BD4
:1008C000DDD1214B1B687B6110E07B691B8BFA88B3
:1008D0009A4208D17B691A68BB681B689A4202D1A8
:1008E0004FF0F50323E07B69DB687B617B69002BBC
:1008F000EBD1BB68002B07D0BB681B68002B03D073
:10090000FB68BA6810681860FB68FA881A830D4B98
:100910001A68FB68DA600B4BFA681A6001F0E6FEB1
:10092000FB880A48194604F0E9FF4FF000035BB268
:10093000184607F11807BD4680BD00BFDC3D00200A
:10094000D43D0020E43D0020E83D0020D09100008F
:1009500080B485B000AFF860B9601346FB714FF00A
:10096000FB035BB2184607F11407BD4680BC704715
:1009700080B584B000AF78600B46FB707B681B7C51
:10098000002B02D04FF0000375E07B681B7C012B2D
:1009900001D17B686FE04FF0030001F009FC0346D2
:1009A000FB60FB68002B02D14FF0000363E07B6823
:1009B0005A69FB685A617B681A8BFB681A83FB686B
:1009C0004FF001021A747B681A89FB681A81FB6870
:1009D0001B8943F002039AB2FB681A817B68DA7ABA
:1009E000FB68DA727B689A7AFB689A727B68002BE4
:1009F00002D07B681B6801E04FF00003FA681360C7
:100A00001F4B1A687B689A4205D11D4B1B68DA6838
:100A10001B4B1A6019E01A4B1A681A4B1A6010E047
:100A2000184B1B68DA687B689A4205D1154B1B6826
:100A30007A68D268DA6008E0124B1B68DA68114BFA
:100A40001A60104B1B68002BEAD17B684FF0000244
:100A5000DA604FF00200796801F04CFCFB680A4A4A
:100A6000DA610A4B1A68FB68DA60084BFA681A60A8
:100A700001F03CFEFB68184607F11007BD4680BD3B
:100A8000E43D0020E03D002051090000DC3D002055
:100A900080B485B000AF78607B685A6A7B681B8D34
:100AA000D318FB607B68DA6A7B681B8FB3F5006F35
:100AB00002D87B681B8F01E04FF40063D318FA68FB
:100AC000D31A002B08DB7B681A8D7B685A857B68FC
:100AD000DB6AFA68D31A17E07B685A6A7B68DB6ABC
:100AE000D31A002B04DD7B684FF000025A8509E021
:100AF0007B68DB6A9AB27B685B6A9BB2D31A9AB254
:100B00007B685A854FF00003184607F11407BD466D
:100B100080BC704780B584B000AF78600B467B80A6
:100B20007B681A8D7B88D3189AB27B681A857B689C
:100B30001B8DB3F5805F03D97B684FF480521A8513
:100B40007868FFF7A5FF0346FB60FA6840F2FF33C1
:100B50009A420BDD7B6893F8223043F00203DAB24D
:100B60007B6883F82220786807F0A0FB79887B688F
:100B70001B8D1A467B681B8DC3F58053034804F018
:100B8000BDFE07F11007BD4680BD00BFEC9100001F
:100B900080B483B000AF04E000BF02E000BF00E01B
:100BA00000BF244B1B8803F101039AB2214B1A802A
:100BB000204B1B889BB21BB2002B03DA1D4B4FF45A
:100BC00080521A801C4B1B687B6008E07B681A8B84
:100BD000184B1B889A42DFD07B68DB687B607B68A0
:100BE000002BF3D1154B1B687B6008E07B681A8BE8
:100BF000104B1B889A42D1D07B68DB687B607B6896
:100C0000002BF3D10E4B1B687B6008E07B681A8BCE
:100C1000084B1B889A42C3D07B68DB687B607B688B
:100C2000002BF3D1034B1B88184607F10C07BD4678
:100C300080BC704730000020D43D0020E83D0020FB
:100C4000DC3D0020F0B589B002AF4FF000037B73AC
:100C5000354B1B6803F10102334B1A604FF0000360
:100C60003B61324B1B687B617B69002B40F03D820E
:100C70002F4804F043FE38E22E4804F03FFE4FF0C8
:100C80000003FB734FF00003BB737B691B7C022BDB
:100C90000CD17B6993F84A30062B07D1FB7B03F11B
:100CA0000103FB73244804F029FEC4E07B6993F838
:100CB0004A300C2B07D1FB7B03F10103FB731F4868
:100CC00004F01CFEB7E07B6993F8A030002B39D00C
:100CD0007B69D3F89C3003F101027B69C3F89C2047
:100CE0007B69D3F89C207B6993F8A03003F1FF3334
:100CF0001349CB5C9A42C0F09E807B694FF00002A2
:100D0000C3F89C207B6993F8A030062B08D87B6938
:100D100093F8A03003F10103DAB27B6983F8A020D5
:100D2000786907F02DFF86E0D83D0020D43D0020F3
:100D3000349200005492000078920000A0920000CB
:100D4000949100007B69DB8E1BB2002B06DB7B6974
:100D5000DB8E03F101039AB27B69DA867B699B6FB4
:100D6000002B68D07B69DA8E7B69B3F8483012B209
:100D70001BB29A425FDB7B69DB8E1AB27B69B3F8E8
:100D800048301BB2624811461A4604F0B7FD7B6931
:100D90001B7C022B17D07B69B3F844301BB24FEA9F
:100DA000E3039BB21AB27B69B3F846301BB2D21888
:100DB0007B6993F84A305749CB5C02FA03F39AB245
:100DC0007B69A3F848207B694FF00002DA867B69D3
:100DD000B3F85C207B69B3F852309A4238BF1346AF
:100DE0007B817B894FEA53039AB27B69A3F8542035
:100DF0007B69B3F854207B691B8F9A4207D27B69C9
:100E00001B8F4FEA43039AB27B69A3F854207B6996
:100E10001A8F7B69A3F852207B69B3F852301A46C7
:100E20007B69B3F854303C4811461A4604F066FD1D
:100E3000786907F0C9FD7B691B7C062B0DD1374B08
:100E40001A687B691B6BD31A282B06D9FB7B03F12D
:100E50000103FB73324804F051FD7B691B8903F0E9
:100E60000803002B00F086807B691B7C042B03D0D9
:100E70007B691B7C072B7DD1284B1A687B691B6B18
:100E8000D21A7B69D3F89810264BCB182649A1FBC0
:100E900003034FEA53139A424AD97B695B681846A9
:100EA00003F028F803464FEA13639BB203F0FF06F2
:100EB0007B695B68184603F01DF803464FEA13434D
:100EC0009BB203F0FF057B695B68184603F012F8DC
:100ED00003464FEA13239BB203F0FF047B695B6870
:100EE000184603F007F803469BB203F0FF03009394
:100EF0000E4831462A46234604F000FDFB7B03F1F1
:100F00000103FB73BB7B03F10103BB7332E000BF42
:100F1000C892000084910000EC920000D83D0020AF
:100F200010930000B84C0A00D34D621040930000AB
:100F3000894B1A687B691B6BD21A7B69D3F89810AE
:100F40007B6993F8A130854800FB03F3C918844BF3
:100F5000A3FB01034FEA53139A420BD9786907F0B8
:100F600069FD7B6993F8A13003F10103DAB27B6973
:100F700083F8A1207B69DB6F002B1CD0764B1A68AD
:100F80007B691B6BD11A7B69B3F848301AB21346E0
:100F90004FEA43039B184FEA430399420BD37B6903
:100FA000DB6F184600F05CF97B694FF00002DA67EE
:100FB0006C4804F0A3FC7B691B7C032B0DD1664BB2
:100FC0001A687B691B6BD31A282B06D9FB7B03F1AC
:100FD0000103FB73644804F091FC7B691B7C092BC3
:100FE0000DD15D4B1A687B691B6BD31AF02B06D9A8
:100FF000FB7B03F10103FB735C4804F07FFCFB7B8C
:10100000002B3AD0786900F03BFB3B69002B04D001
:101010007B69DA683B69DA6003E07B69DA68544B24
:101020001A607B69D3F89430002B08D07B69D3F821
:1010300094307A69526910466FF004019847BB7B7F
:10104000002B0FD07B69986D7B69596A7A697B693F
:1010500003F104037C69258B7C69248C0095019441
:1010600007F006FC7B69DB687B604FF00200796962
:1010700001F040F97B687B6137E07B6993F834309D
:1010800003F10103DAB27B6983F834207B6993F8BA
:1010900034207B6993F835309A4221D37B694FF035
:1010A000000283F83420334804F028FC7B69D3F82D
:1010B0009030002B0AD07B69D3F890307A6952695E
:1010C00010467969984703467B7302E04FF00003AE
:1010D0007B7397F90D30002B02D1786907F0E6F8A1
:1010E0007B693B617B69DB687B617B69002B7FF4FB
:1010F000C3AD4FF000033B611F4B1B687B6142E0B7
:101100004FF00003FB73144B1A687B691B6BD31AF7
:10111000F02B03D9FB7B03F10103FB73FB7B002B5B
:101120002CD0786900F0ACFA3B69002B04D07B69C5
:10113000DA683B69DA6003E07B69DA680E4B1A60B3
:101140007B69DB687B604FF00200796901F0D2F8BF
:101150007B687B6117E000BFD83D0020F8240100C8
:10116000D34D621088930000B4930000E493000014
:10117000D43D002014940000E83D00207B693B61D1
:101180007B69DB687B617B69002BB9D107F11C07A8
:10119000BD46F0BD90B583B000AF2F4B1B687B60A0
:1011A00053E07B68D3F88030002B2BD07B68D3F8DA
:1011B0008830002B10D07B68D3F888407B685A6950
:1011C0007B68D3F88030104679681A464FF00003E8
:1011D000A0470346FB700CE07B68D3F880304FF0EB
:1011E000000079681A464FF0000300F07BF80346D0
:1011F000FB7097F90330002B04D17B684FF000029D
:10120000C3F880207B6893F8223003F00103DBB23F
:10121000002B17D0114804F071FB7B6893F8223043
:1012200043F00203DAB27B6883F82220786807F083
:101230003DF87B6893F8223023F00303DAB27B6831
:1012400083F822207B68DB687B607B68002BA8D159
:1012500007F10C07BD4690BDD43D00203894000036
:1012600080B584B000AF78604FF00003FB730CE0F2
:101270007B681B68BB60786800F010F803461A466C
:10128000FB7BD318FB73BB687B607B68002BEFD1C3
:10129000FB7B184607F11007BD4680BD80B584B0C2
:1012A00000AF78604FF00003FB737B68002B13D016
:1012B0007B685B68002B0AD07B685B68184602F08D
:1012C00081FC0346FB737B684FF000025A604FF0CD
:1012D0000400796801F00EF8FB7B184607F110074F
:1012E000BD4680BD80B584B000AFF860B9607A605B
:1012F000FB707B68002B09D07B681B89B868194696
:10130000FFF708FC786802F05DFC08E097F903300D
:10131000002B04D1B868FFF7FBF8034601E04FF05B
:1013200000035BB2184607F11007BD4680BD00BF41
:1013300080B586B000AF0346FB714FF07F03FB72B0
:101340004FF00003FB604FF000033B611B4B1B6839
:101350007B611FE07B695B7CFA799A4217D37B69DA
:101360005B7CFA7A9A4212D3154B1A687B691B6B25
:10137000D21AFB689A420AD3114B1A687B691B6B1D
:10138000D31AFB607B693B617B695B7CFB727B6989
:10139000DB687B617B69002BDCD13B69002B09D0CA
:1013A00008483969FA6804F0A9FA38694FF0010170
:1013B000FFF77EF907F11807BD4680BDD43D002038
:1013C000D83D00205494000080B584B000AF4FF0A9
:1013D00000037B604FF00003BB60154B1B68FB6094
:1013E00012E0144B1A68FB681B6BD21A7B689A4296
:1013F00007D3104B1A68FB681B6BD31A7B60FB6822
:10140000BB60FB68DB68FB60FB68002BE9D1BB6855
:10141000002B09D00848B9687A6804F06FFAB868F8
:101420004FF00101FFF744F907F11007BD4680BDF9
:10143000E83D0020D83D00208094000080B584B0B5
:1014400000AF0346FB714FF0020000F0B1FE03460F
:10145000FB60FB68002B34D1514804F04FFAFFF7D2
:10146000B3FF4FF0020000F0A3FE0346FB60FB68F1
:10147000002B1AD1FB794B48194604F03FFAFB794F
:101480001846FFF755FF4FF0020000F091FE0346AB
:10149000FB60FB68002B08D0434BB3F8B43003F17A
:1014A000FF339AB2404BA3F8B420FB68002B08D05E
:1014B0003D4BB3F8B43003F1FF339AB23A4BA3F883
:1014C000B420FB68002B65D0F8684FF000014FF0A6
:1014D000A40207F07BFDFB684FF040025A74FB68E2
:1014E00041F27072A3F86E20FB684FF00002A3F87F
:1014F0007020FB684FF480521A85FB684FF48052CD
:101500005A85FB684FF000029A72FB684FF0FF02A9
:10151000DA72FB684FF406721A87FB684FF0060216
:10152000A3F84820FB684FF00002A3F84420FB68B2
:101530004FF00602A3F84620FB684FF6FF72DA86EA
:10154000FB684FF00102A3F8522000F05DF9B8608B
:10155000FB68BA685A66FB68BA689A65FB68BA683D
:10156000DA64FB68BA689A66104B1A68FB681A63FB
:10157000FB684FF0000283F83420FB680C4AC3F884
:101580008820FB680B4AC3F89820FB684FF00002E4
:1015900083F8A120FB68184607F11007BD4680BDFF
:1015A000BC940000F094000028410020D83D0020A9
:1015B000E512000000DD6D0080B500AF4FF0400087
:1015C000FFF73CFF0346184680BD00BF80B483B0E0
:1015D00000AF786039607B683A685A6107F10C07A0
:1015E000BD4680BC704700BF80B483B000AF786058
:1015F00039607B683A68C3F8882007F10C07BD465C
:1016000080BC704780B483B000AF786039607B687D
:101610003A68C3F8842007F10C07BD4680BC7047C8
:1016200080B483B000AF786039607B683A68C3F8F3
:10163000942007F10C07BD4680BC704780B483B08E
:1016400000AF786039607B683A68DA6107F10C07AF
:10165000BD4680BC704700BF80B485B000AFF86065
:10166000B9601346FB71FB68BA68C3F89020FB6849
:10167000FA7983F8352007F11407BD4680BC70471E
:1016800080B582B000AF78607B681B7C002B51D0A6
:101690007B681B7C0A2B4DD07B681B7C012B49D0BF
:1016A000264804F02BF97B68D3F88030002B0DD04E
:1016B000234804F023F97B68D3F88030184602F001
:1016C00081FA7B684FF00002C3F880207B685B6F73
:1016D000002B02D01B4804F011F97B689B6F002B94
:1016E00002D0194804F00AF97B68DB6F002B02D0A6
:1016F000164804F003F97B684FF6FF72DA867B68C0
:10170000DB6F1846FFF7ACFD7B684FF00002DA672D
:101710007B685B6F1846FFF7A3FD7B689B6F1846DD
:10172000FFF79EFD7B684FF000025A677B685A6F97
:101730007B689A6707F10807BD4680BD28950000C1
:10174000389500006495000088950000B095000071
:1017500080B582B000AF786039607B681A683B68FA
:101760009A4205D17B681B68DA687B681A6019E0C9
:101770007B681A68234B1A6010E0224B1B68DA68FA
:101780003B689A4205D11F4B1B683A68D268DA6001
:1017900008E01C4B1B68DA681A4B1A60194B1B686F
:1017A000002BEAD13B684FF00002DA603868FFF79F
:1017B00067FF3B681B7C0A2B17D03B681B7C012B07
:1017C00013D03B6893F8223003F00103DBB2002B07
:1017D0000BD03B6893F8223043F00203DAB23B6847
:1017E00083F82220386806F061FD3B681B7C012BE2
:1017F0003B684FF000021A7400F030F807F1080758
:10180000BD4680BDE03D002080B400AF064B1A68A5
:10181000064B1B68D218044B1A60034B1B68184612
:10182000BD4680BC704700BF2C000020D83D002082
:1018300080B582B000AF0346FB71FA79054B53F8CF
:1018400022300548194604F059F807F10807BD464B
:1018500080BD00BF000000200897000080B483B066
:1018600000AF0E4B1B687B6002E07B68DB687B602F
:101870007B68002BF9D10A4B1B687B6002E07B6818
:10188000DB687B607B68002BF9D14FF001031BB252
:10189000184607F10C07BD4680BC7047D43D0020B8
:1018A000E83D002080B500AF0F4B1B78DBB2012B69
:1018B00011D10E4B1B78012B01D101F041FA0C4BD9
:1018C0001B78DBB2012B01D101F0AEF8064B4FF0D3
:1018D00000021A7007E0044B1B78DBB203F1FF3300
:1018E000DAB2014B1A7080BD82090020CC3700208B
:1018F0008309002080B400AF054B1B78DBB203F1F5
:101900000103DAB2024B1A70BD4680BC704700BFBB
:101910008209002080B500AFFFF7C4FF80BD00BF83
:1019200080B500AF174B184A1A60184B4FF00702EA
:101930001A60174B164A126842F07F421A60154A25
:10194000144B1B686FEA03436FEA1343136000F004
:1019500063FF03F01DFBFEF79DFD0F4B1B78DBB211
:1019600003F10103DAB20C4B1A700C484FF000017E
:101970004FF4CA520A4B01F031F9094804F024FA35
:1019800080BD00BF14E000E07FFC0A0010E000E032
:101990001CED00E020ED00E0820900207D780000D1
:1019A0008037002080B500AF094B0A4A1A60084B07
:1019B0001A68094B1A60064B1B684FF001025A71F6
:1019C000034B1B68184600F0E5FFFFF76BFF80BD77
:1019D00090370020183600208C37002080B483B068
:1019E00000AF0346FB71094B97F907204FEA5212EB
:1019F000F97901F01F014FF0010000FA01F143F8FD
:101A0000221007F10C07BD4680BC704700E100E0E2
:101A100080B483B000AF0346FB710A4B97F90720EF
:101A20004FEA5212F97901F01F014FF0010000FA5C
:101A300001F102F1200243F8221007F10C07BD4624
:101A400080BC704700E100E080B483B000AF7860F4
:101A500039607B684FF000021A607B684FF000022B
:101A60005A603A687B689A6007F10C07BD4680BCF3
:101A7000704700BF80B485B000AF78600B46FB7044
:101A80007B681B6803F10102124B02EA0303002B7F
:101A900005DA03F1FF3363F0FF0303F10103FB6099
:101AA0007B685A68FB689A4202D14FF000030BE052
:101AB0007B689A687B681B68D318FA781A707B6811
:101AC000FA681A604FF00103184607F11407BD4683
:101AD00080BC7047FF00008080B485B000AF7860A4
:101AE00039607B681A687B685B689A4202D14FF064
:101AF00000031DE07B685B6803F101020F4B02EA03
:101B00000303002B05DA03F1FF3363F0FF0303F156
:101B10000103FB607B689A687B685B68D3181B785D
:101B2000DAB23B681A707B68FA685A604FF00103BA
:101B3000184607F11407BD4680BC7047FF000080BF
:101B400080B584B000AF78604FF01800FFF760FFF9
:101B5000786800F00BF8F8604FF01800FFF73EFFD0
:101B6000FB68184607F11007BD4680BD80B483B0FE
:101B700000AF78607B681B6803F580727B685B68E8
:101B8000D21A084B02EA0303002B05DA03F1FF33F4
:101B900063F0FF0303F10103184607F10C07BD468C
:101BA00080BC7047FF00008080B582B000AF7860D5
:101BB0007868FFF7C5FF0346C3F1FF03184607F136
:101BC0000807BD4680BD00BF90B587B000AF034693
:101BD000FB71FA798B4913464FEA43039B184FEA8E
:101BE000C303CB1803F104031B68FB60FB68002BE5
:101BF00000F00381844B1B78DBB203F10103DAB2FE
:101C0000814B1A70814B1B68002B0CD1FA7913465B
:101C10004FEA43039B184FEAC3031A46794BD21885
:101C20007A4B1A60E6E0794B1B687B61FB683B618D
:101C3000DCE03A697B695B68D31A3B613B69002B46
:101C400080F2A3807B695B69002B34D07B69596982
:101C5000FA7913464FEA43039B184FEAC3031A4627
:101C6000684BD3180B61FA797B695969654813464B
:101C70004FEA43039B184FEAC303C31803F114034D
:101C80001960FA795F4913464FEA43039B184FEAFC
:101C9000C303CB1803F110037A691A60FA7913466B
:101CA0004FEA43039B184FEAC3031A46554BD21819
:101CB0007B695A6126E0FA79544B196851481346FA
:101CC0004FEA43039B184FEAC303C31803F1100301
:101CD00019604E4B1968FA7913464FEA43039B1873
:101CE0004FEAC3031A46474BD3184B61FA791346A0
:101CF0004FEA43039B184FEAC3031A46414BD218DD
:101D0000424B1A60FA79F9793E480B464FEA430391
:101D10005B184FEAC303C31803F110031B6859682B
:101D20003B69C918374813464FEA43039B184FEAEB
:101D3000C303C31803F104031960FA793149134648
:101D40004FEA43039B184FEAC303CB1803F1100378
:101D50001968FA792B4813464FEA43039B184FEA58
:101D6000C303C31803F110031B685868FA79254CA4
:101D700013464FEA43039B184FEAC303E31803F1EA
:101D800004031B68C31A4B6034E03B69002B2ADB59
:101D90007B691B69002B26D1FA791A4913464FEA51
:101DA00043039B184FEAC303CB1803F114037A696A
:101DB0001A60FA7913464FEA43039B184FEAC303AC
:101DC0001A46104BD2187B691A61FA7939690D48A5
:101DD00013464FEA43039B184FEAC303C31803F1AA
:101DE0000403196006E07B691B697B617B69002B3A
:101DF0007FF41FAFFFF756FD00E000BF07F11C079F
:101E0000BD4690BD8409002082090020B40900204D
:101E100080B584B000AF0346FB71FA7913464FEAF0
:101E200043039B184FEAC3031A46314BD318FB6098
:101E3000304B1B78DBB203F10103DAB22D4B1A7081
:101E4000FB685B69002B08D1FB681B69002B04D180
:101E5000294B4FF000021A6043E0FB685B69002BDE
:101E600016D1FB681A69244B1A60234B1B684FF08C
:101E700000025A61FB681B69FA6812695168FA68C6
:101E800052688A185A60FB684FF000021A6128E015
:101E9000FB681B69002B09D1FB685B694FF00002EE
:101EA0001A61FB684FF000025A611AE0FB685B6937
:101EB000FA6812691A61FB681B69FA6852695A610B
:101EC000FB681B69FA6812695168FA6852688A18D7
:101ED0005A60FB684FF000021A61FB684FF0000285
:101EE0005A61FFF7DFFC07F11007BD4680BD00BF58
:101EF0008409002082090020B409002080B582B046
:101F000000AF1C4B1B687B6028E07B685B78002B74
:101F10000CD17B681B781846FFF77AFF7B684FF07F
:101F200001029A707B68DB68984714E07B685B78F5
:101F3000012B10D17B681B781846FFF769FF7B687F
:101F40009A687B685A607B681B781846FFF73CFEEE
:101F50007B68DB689847074B1B687B607B68002BBE
:101F600003D07B685B68002BCFD007F10807BD4624
:101F700080BD00BFB409002080B500AF084B1B78BE
:101F8000DBB2012B08D9074B4FF001021A70064B48
:101F90004FF001021A7001E0FFF7B0FF80BD00BFF3
:101FA00082090020CC370020CE37002080B400AF5B
:101FB000594B4FF02002C3F8A02100BF564BD3F875
:101FC000A03103F04003002BF8D0534B4FF0030235
:101FD000C3F80421504B4FF00002C3F8A8214E4B28
:101FE0004FF00002C3F8AC214B4B4FF00102C3F895
:101FF0000C21494B494AC3F88420474B4FF0AA02B1
:10200000C3F88C20444B4FF05502C3F88C20424B50
:102010004FF00102C3F880203F4B4FF0AA02C3F8F3
:102020008C203D4B4FF05502C3F88C2000BF3A4B3B
:10203000D3F8883003F08063002BF8D0364B4FF094
:102040000302C3F88020344B4FF0AA02C3F88C205F
:10205000314B4FF05502C3F88C2000BF2E4BD3F804
:10206000883003F04073002BF8D02B4B4FF0230245
:10207000C3F8A420284B4FF0AA02C3F88C20264BAB
:102080004FF0AA02C3F8AC20234B4FF05502C3F81F
:10209000AC20214B4FF00102C3F8A0201E4B4FF0A3
:1020A000AA02C3F8AC201C4B4FF05502C3F8AC2079
:1020B00000BF194BD3F8A83003F48063002BF8D08D
:1020C000154B4FF00302C3F8A020134B4FF0AA02A8
:1020D000C3F8AC20104B4FF05502C3F8AC2000BF42
:1020E0000D4BD3F8A83003F44073002BF8D00A4B03
:1020F0000B4AC3F8C420084B4FF00002C3F8C821B4
:10210000054B054A126822F4704242F480421A607C
:10211000BD4680BC704700BF00C00F406300050093
:10212000DE87280480B485B000AF4FF00003FB8148
:102130002FE0B7F90E201D4B53F82230BB6021E091
:102140004FF00103BB81B7F90E20184B53F8223032
:102150007B6011E07A68BB689A420AD1BB8903F1BF
:10216000FF33BB81B7F90C30002B02DA4FF00003CC
:1021700015E07B681B687B607B68002BEAD1BB683D
:102180001B68BB60BB68002BDAD1FB8903F101033C
:10219000FB81B7F90E300C2BCBDD4FF00103184655
:1021A00007F11407BD4680BC704700BFBC09002082
:1021B00080B584B000AF0346FB71FB790C2B02D9CC
:1021C0004FF0000388E003F087FBB860FA79454BD5
:1021D00053F82230FB60FB68002B54D0FA79FB687F
:1021E0001968404B43F82210FA793F4913464FEAE9
:1021F00083039B184FEA4303CB1803F19C031B880E
:1022000003F1010399B2384813464FEA83039B1840
:102210004FEA4303C31803F19C030A461A80FA7974
:10222000314913464FEA83039B184FEA4303CB1807
:1022300003F19E031988FA792B4813464FEA83036A
:102240009B184FEA4303C31803F19C031B88994270
:102250003DD2FA79F97924480B464FEA83035B189B
:102260004FEA4303C31803F19C0319881E48134621
:102270004FEA83039B184FEA4303C31803F19E03FD
:102280000A461A8024E0FA79184B53F8223018488D
:10229000194603F033FBFA79134913464FEA8303D7
:1022A0009B184FEA4303CB1803F1A0031B8803F1EB
:1022B000010399B20C4813464FEA83039B184FEA77
:1022C0004303C31803F1A0030A461A8000E000BFCD
:1022D000B86803F009FBFB68184607F11007BD4614
:1022E00080BD00BFBC090020284100203400002030
:1022F0009C98000080B584B000AF03463960FB7144
:102300003B68002B30D03B68FB6003F0E5FAB86017
:10231000FA79184913464FEA83039B184FEA43039F
:10232000CB1803F19C031B8803F1FF3399B21148CA
:1023300013464FEA83039B184FEA4303C31803F184
:102340009C030A461A80FA790B4B53F82220FB684B
:102350001A60FA79084BF96843F82210FFF7E2FE99
:10236000B86803F0C1FA00E000BF07F11007BD46EE
:1023700080BD00BF28410020BC09002080B586B088
:1023800000AFF860B9607A60FB681B784FEA5313BE
:10239000DBB203F003037B610A4B7A6953F8223006
:1023A0003B613B69002B02D14FF0000305E03B6924
:1023B000F868B9687A6898470346184607F118071D
:1023C000BD4680BDE835002080B584B000AF03462F
:1023D000FB714FF080004FF0010104F03BFA084B15
:1023E000BB604FF00003FB6003E0FB6803F10103F7
:1023F000FB60FB68072BF8DD07F11007BD4680BDC9
:10240000D435002080B582B000AF0F4B1B68402B45
:10241000A8BF40237B600D4B1B684FF0800019461E
:102420007A6804F03DFA094B1A687B68D218074BAA
:102430001A60054B1A687B68D21A034B1A6007F1C1
:102440000807BD4680BD00BFE0350020DC35002018
:1024500080B584B000AF02460B46FA71BB71FB79C0
:10246000002B40F09B80BB7903F00403002B46D087
:102470004FF000004E494FF0080204F06BFA4C4B4D
:102480001B784FEA5313DBB203F00303FB60494BA5
:10249000FA6853F82220484B1A60454BDB881A46ED
:1024A000464B1A60424BDB881A46454B1A60404B3C
:1024B000DB88002B09D03E4B1B784FEAD313DBB2ED
:1024C00003F00103DBB2002B6DD039483C493A4A96
:1024D000FFF754FF0346002B04D1BB791846FFF7E2
:1024E00073FF60E0324BDB881A46354B1B689A421B
:1024F000A8BF1A46314B1A60FFF784FF53E02F4BF9
:102500001B68002B40DD2C4B1A682C4B1B684FF0CE
:10251000000011461A4604F01DFAB860BB68002B93
:1025200004DABB791846FFF74FFF3CE0224B1A68EC
:10253000BB68D218204B1A60204B1A68BB68D21AAD
:102540001E4B1A601D4B1B68002B2CD1184B1B789F
:102550004FEA5313DBB203F00303FB60154BFA6839
:1025600053F82220144B1A6011481549124AFFF7FC
:1025700005FF0346002B04D1BB791846FFF724FF63
:1025800011E0FFF73FFF0EE04FF000004FF00001B9
:102590004FF0000204F0DEF9B86004E0FB79802B14
:1025A00001D1FFF72FFF07F11007BD4680BD00BF27
:1025B000D4350020F8350020DC350020E03500203F
:1025C000E435002080B485B000AFF860B9607A606F
:1025D000074BFA68B96843F82210064BFA68796825
:1025E00043F8221007F11407BD4680BC704700BFB6
:1025F000E8350020F835002080B582B000AF786063
:102600007B68002B15D07B681B68002B0CD07B6887
:102610001B68184601F0D6FA7B684FF000025A603A
:102620007B685A687B681A604FF005007968FFF78D
:1026300061FE07F10807BD4680BD00BF80B485B0CC
:1026400000AFF860B9607A60FB68002B02D14FF0F0
:10265000F6031EE0BB68002B02D14FF0F60318E032
:102660007B68002B02D14FF0F60312E0FB685B6839
:10267000002B02D14FF0FE030BE0FB685B685A6849
:10268000BB681A60FB685B685A897B681A804FF0E8
:1026900000035BB2184607F11407BD4680BC7047C3
:1026A00080B582B000AF7860FDF71AFF0B4B1B6856
:1026B000002B03D10A4B1B68002B07D04FF0FA0008
:1026C00008494FF0000200F0C9FB03E0064B4FF051
:1026D00000021A6007F10807BD4680BDD43D002006
:1026E000E83D0020A12600001036002080B500AF94
:1026F0000B4B1B68002B12D10A4B1B68002B03D11C
:10270000094B1B68002B0AD0054B4FF001021A60E1
:102710004FF0FA0005494FF0000200F09FFB80BD2A
:1027200010360020D43D0020E83D0020A126000006
:1027300080B586B000AFF860B9601346FB71204BDE
:102740001B78FF2B33D04FF00700FFF731FD034616
:102750007B617B69002B02D14FF0FF0329E07B698D
:102760004FF002021A707B69FA689A607B69BA6856
:10277000DA60FB79002B06D0114B1B78184679697B
:1027800002F0DCFE10E00E4B1B781846796902F06F
:10279000E5FE0346002B07D04FF007007969FFF7ED
:1027A000A9FD4FF0FF0304E04FF0000301E04FF0FC
:1027B000F7035BB2184607F11807BD4680BD00BF9E
:1027C0006800002080B588B000AF7860114B1B789E
:1027D000FF2B17D04FF000033B737B687B610D4BE1
:1027E0001A7807F10C031046194602F0A7FE7B6821
:1027F0005B685B7A18464FF0000102F073FF4FF000
:10280000000301E04FF0F7035BB2184607F1200721
:10281000BD4680BD6800002080B485B000AF184B75
:10282000BB60184B7B604FF00003FB7315E0BB6887
:10283000FA7B9A71BB684FF003025A71BB687A68E1
:102840005A62BB6803F12C03BB607B6803F12C0365
:102850007B60FB7B03F10103FB73FB7B042BE6D95D
:10286000BB68FA7B9A71BB684FF000025A62064B54
:10287000034A1A6007F11407BD4680BC704700BFC9
:1028800018360020443600208437002080B487B0FA
:1028900000AF78607B681B79FB737B684FF00002A8
:1028A0005A71374B1B683B613B691B79FA7B9A4233
:1028B0001ED13A697B689A421AD03B69002B17D027
:1028C000304BD3E90001304BD3E90023904271EB48
:1028D000030C0DD23B695B8918464FF000012A4B6F
:1028E000D3E90023121843EB01032649C1E9002371
:1028F000264B1B683B613B69002B07D1244B4FF0F3
:1029000001021A70214B7A681A6034E03B691B7926
:10291000FA7B9A420DD21E4B4FF001021A707B686F
:102920003A695A623B697A689A62184B7A681A6007
:1029300021E03B695B6A7B6109E07B691B79FA7B7B
:102940009A4208D37B693B617B695B6A7B617B69E7
:10295000002BF2D100E000BF7B687A695A623B69C4
:102960007A685A627B683A699A627B69002B02D066
:102970007B697A689A6207F11C07BD4680BC704784
:102980009037002098370020C83D0020883700206D
:102990008309002080B483B000AF78607B685B6AF5
:1029A000002B08D17B689B6A002B04D11D4B4FF094
:1029B00000021A6031E07B689B6A002B0DD17B68B6
:1029C0005A6A184B1A607B684FF000025A62154B26
:1029D0001B684FF000029A621FE07B685B6A002B65
:1029E00009D17B689B6A4FF000025A627B684FF006
:1029F00000029A6211E07B689B6A7A68526A5A62A6
:102A00007B685B6A7A68926A9A627B684FF0000220
:102A10005A627B684FF000029A6207F10C07BD46CC
:102A200080BC70478837002080B584B000AF4E4B23
:102A30001B68FB604D4B1B68BB60BB68002B00F044
:102A400083804B4B1B68FA689A427FD1494B1B78B5
:102A5000DBB2012B7CD8484B1B78DBB2002B79D141
:102A6000464B4FF000021A70FB681B79FB71BB6884
:102A70001B79BB71FB685B79012B0AD03C4BBA68B0
:102A80001A60BB684FF001025A71B868FFF782FF05
:102A90002FE0BA79FB799A420DD2354BBA681A60A9
:102AA000F868FFF7F3FEB868FFF774FFBB684FF0F4
:102AB00001025A711DE0FA79BB799A424CD1304B30
:102AC000D3E900012F4BD3E9002382EA000283EA15
:102AD000010352EA030141D1254BBA681A60F86834
:102AE000FFF7D4FEB868FFF755FFBB684FF001024F
:102AF0005A711F4B1B681A791C4B1B681B799A4231
:102B00000ED11B4B1B685B8918464FF000011D4B13
:102B1000D3E90023121843EB01031949C1E900234B
:102B2000FB681A68FB68DB689A4205D3FB68DB68C0
:102B30001A68154B9A4204D0FB689B79184604F03A
:102B4000A3FE03F047F90AE000BF08E000BF06E07B
:102B500000BF04E000BF02E000BF00E000BF07F1DB
:102B60001007BD4680BD00BF903700208837002089
:102B70008C37002082090020810900208309002071
:102B800098370020C83D0020A5A55A5A80B582B0CC
:102B900000AF104B1B78DBB203F10103DAB20D4B2F
:102BA0001A700D4B1B68002B04D1FEF77BFE4FF013
:102BB00000030AE0084B1B687B60074B1B685A6ADE
:102BC000054B1A60FEF76EFE7B68184607F1080792
:102BD000BD4680BD820900208437002080B588B0C2
:102BE00000AFF860B9607A603B607A684A4B02EAED
:102BF00003034FEA1323BB837B68FB76FB68002B40
:102C000002D14FF0FF0382E03B68002B02D14FF06E
:102C1000FF037CE0FB7E402B02D94FF0FF0376E000
:102C2000BB8B132B02D84FF0FF0370E0F868B96834
:102C30003A6804F071FA7861FFF7A8FF38613B69E0
:102C4000002B02D14FF0FF0361E03B697A691A6003
:102C50003B69FA7E1A71BA8B13464FEA83739B1A4B
:102C60004FEA830303F104033A68D2183B69DA6040
:102C70003B69DB68294A1A603B694FF0FF321A62F0
:102C80003B694FF000025A623B694FF000029A62C2
:102C90007A68234B02EA03034FEA1353FB83FB8B4F
:102CA000002B02D14FF00A03FB833B69FA8B5A8158
:102CB0003B694FF00002DA613B694FF0FF021A7284
:102CC0003B694FF000021A613B694FF000025A6104
:102CD0003B694FF000029A613B694FF0FF02DA71E5
:102CE0007B68002B0DDB0F4B1B78DBB203F101037C
:102CF000DAB20C4B1A703869FFF7C8FDFEF7D2FD47
:102D000003E03B694FF002025A713B699B79184618
:102D100007F12007BD4680BD00FF0F00A5A55A5A48
:102D20000000FF7F8209002080B400AF034B1B68C6
:102D30009B791846BD4680BC704700BF9037002085
:102D400080B582B000AF404B1B78012B05D101F05C
:102D5000D5F93D4B4FF000021A703C4B1B78012B0C
:102D60005AD1FFF7CBF8394B4FF000021A7056E0FA
:102D700003F024F8364B5B78354A4FEAC303D31887
:102D80003A4603F1040393E8030082E80300304B62
:102D90005B7803F101012F4B83FB01234FEA6302B0
:102DA0004FEAE173D21A13464FEA83039B18CA1AFB
:102DB000D2B2274B5A70264B1B7803F1FF33DAB29D
:102DC000234B1A7002F0F4FF3B7803F1FF33032B1F
:102DD00024D801A252F823F0E92D0000F32D0000C1
:102DE000012E00000B2E00007B78184604F002FD37
:102DF00015E07A787B681046194600F0AFFB0EE0CC
:102E00007B78184603F092FA09E07A787B681046DE
:102E1000194603F029FA02E000BF00E000BF0C4BA6
:102E20001B78002BA4D102F0C9FF094B1B78002BA3
:102E300003D1094B4FF000021A7002F0B9FF07F1FD
:102E40000807BD4680BD00BFCD370020CE3700202B
:102E5000A037002067666666CC37002080B58AB050
:102E600002AFF860B9607A604FF00A00FFF7A0F98E
:102E70000346BB61BB69002B6CD0BB694FF00002FD
:102E80001A60BA68BB699A60BB697A68DA60BB6924
:102E9000FA685A6002F09AFC786107F108031B682F
:102EA0007A6800922F48B969FA6802F027FD7B69B9
:102EB000002B51D07B691B68002B03D17B69BA6959
:102EC0001A604AE07B691B685A68FB689A420FD90E
:102ED0007B691B687A6912685168FA688A1A5A60B5
:102EE0007B691A68BB691A607B69BA691A6034E049
:102EF0007B691B68FB6129E0BB695A68FB695B68F9
:102F0000D21ABB695A60FB691B68002B06D0FB69AB
:102F10001B685A68BB695B689A4214D9FB691B68D5
:102F2000002B08D0FB691B68FA6912685168BA69FE
:102F300052688A1A5A60FB691A68BB691A60FB6991
:102F4000BA691A6009E0FB691B68FB61FB69002B29
:102F5000D2D102E000BF00E000BF07F12007BD466C
:102F600080BD00BFEC98000080B586B000AF7860EF
:102F70000B467B804FF000037B617B683B611BE06D
:102F80003B691B784FEA0323FB813B6903F1010393
:102F90003B613B691B781A46FB8942EA0303FB81CC
:102FA0003B6903F101033B61FB897A69D3187B61BB
:102FB0007B88A3F102037B807B88012BE0D87B8890
:102FC000002B08D03B691B784FEA0323FB81FB8968
:102FD0007A69D3187B617B694FEA13427B694FEAB8
:102FE00003434FEA1343D3187B617B694FEA1343D2
:102FF0004FEA0343002B09D07B694FEA13427B69F8
:103000004FEA03434FEA1343D3187B617B699BB2BA
:10301000184600F029FF0346184607F11807BD4679
:1030200080BD00BF80B588B000AFF860B9607A603D
:10303000FB704FF00003FB614FF00003FB75FB6872
:10304000BB6138E0BB691B684E48B9691A4602F09B
:1030500055FCBB695A68BB695B8910461946FFF786
:1030600083FF0346FA69D318FB61FB694FEA1342F9
:10307000FB694FEA03434FEA1343D318FB61BB6973
:103080005B8903F00103DBB2002B11D0FB7DC3F1A0
:103090000103FB75FB694FEA03234FEA03434FEA41
:1030A0001343FA6902F47F424FEA12221343FB6191
:1030B000BB691B68BB61BB69002BC3D1FB7D002BC7
:1030C0000DD0FB694FEA03234FEA03434FEA134352
:1030D000FA6902F47F424FEA12221343FB61BB6894
:1030E0001B684FEA03434FEA1343FA69D318FB61A5
:1030F000BB681B684FEA1343FA69D318FB617B680E
:103100001B684FEA03434FEA1343FA69D318FB6184
:103110007B681B684FEA1343FA69D318FB61FB789D
:103120009BB2184600F0A0FE0346FA69D318FB6173
:103130003B8D184600F098FE0346FA69D318FB61F0
:10314000FB694FEA1342FB694FEA03434FEA13431B
:10315000D318FB61FB694FEA1342FB694FEA034353
:103160004FEA1343D318FB610748F96902F0C6FB25
:10317000FB699BB26FEA03039BB2184607F1200775
:10318000BD4680BD149900005099000080B582B002
:1031900000AF78600B467B807B8878681946FFF724
:1031A000E3FE03466FEA03039BB2184607F10807E4
:1031B000BD4680BD80B400AFBD4680BC704700BF37
:1031C00080B400AFBD4680BC704700BF80B500AF83
:1031D000FEF7ECFE04F024FAFEF7A2FBFFF7EAFF8D
:1031E000FFF7EEFF00F022F9FEF7DCFBFEE700BF81
:1031F00080B483B000AF0346FB71094B97F90720F9
:103200004FEA5212F97901F01F014FF0010000FA64
:1032100001F143F8221007F10C07BD4680BC70474E
:1032200000E100E080B584B000AF02460B46FA71C1
:10323000BB711648FEF7B8FC03463F2B1FDDFB7938
:10324000184613494FF0400203F084FBB8604FF07A
:103250000003FB600EE00E4AFB68D3181B780B4896
:103260001946FEF707FC0346002B0AD0FB6803F162
:103270000103FB60FA68BB689A42ECDB02E000BF26
:1032800000E000BF07F11007BD4680BDF03D002003
:10329000D039002080B584B000AF02460B46FA71E9
:1032A000BB711848FEF762FC0346002B04D14FF0B7
:1032B000000003F0A3FA21E04FF00003FB600DE0F3
:1032C000FA68114BD3180F481946FEF705FC034660
:1032D000002B07D0FB6803F10103FB60FB683F2B69
:1032E000EEDD00E000BFFB68BB60BB68002B05DDC6
:1032F000FB7918460449BA6803F0D2FA07F11007BF
:10330000BD4680BDFC3D0020D039002080B584B092
:1033100000AFF860B9607A60FB685B78212B10D051
:10332000222B19D0202B14D17B681B680E4819461C
:103330004FF0070205F0A2FDBB684FF007021A60CC
:103340000BE0094A7B681A60BB684FF007021A60FD
:1033500003E04FF0000302E000BF4FF00103184606
:1033600007F11007BD4680BD6C00002080B582B01B
:1033700000AF0346FB800748FEF7F8FB0346002B2F
:1033800003DD4FF0200003F039FA07F10807BD46CE
:1033900080BD00BFFC3D002080B500AFFCF75AFEA9
:1033A000184802F0B3FA4FF001001749174AFFF727
:1033B00009F94FF081004FF0000103F08DF94FF053
:1033C0008200134903F088F94FF00500114903F01A
:1033D00083F9114803F0D4F94FF0200003F00EFAFE
:1033E0000E480F49FEF730FB0E480F49FEF72CFB45
:1033F0004FF01800FFF7FCFE4FF0010003F0EAF970
:1034000080BD00BF849900000D330000103A0020F9
:1034100095320000253200006D330000F03D0020A1
:10342000D0380020FC3D0020D037002080B584B08B
:1034300002AF0D4B4FF0050200924FF000000B4918
:103440001A464FF0C80302F009FA0346FB71FB79F4
:10345000FF2B02D14FF0010301E04FF000031846AB
:1034600007F10807BD4680BD244100201535000046
:1034700080B586B000AF7860786803F0A1FF78610E
:103480007B681B7A002B37D107F1100207F10E037E
:10349000786911461A46FFF7D1F8FB89042B2BD91E
:1034A0003B691B78472B27D13B6903F101031B784C
:1034B000452B21D13B6903F102031B78542B1BD10F
:1034C0003B6903F103031B78202B15D13B6903F102
:1034D00004031B782F2B0FD178680C494FF02C0276
:1034E0004FF0000304F050F8786809494FF08A0261
:1034F0004FF0000304F048F8786804F073F8786936
:10350000FFF77AF807F11807BD4680BD2C9A000036
:103510005C9A000080B584B000AF78604FF0100076
:103520004FF000014FF0000203F07AFEF860F868F7
:103530004FF000014FF0500203F0D0FEF8684FF05A
:10354000FF0103F0EFFEF86803F00CFFB860B86805
:10355000FFF78EFFB86803F09DFEF4E780B584B0F6
:1035600000AF03463960FB71FB79132B02D94FF092
:1035700001032CE0FB794FEA0312174BD318FB60D1
:10358000FB685B7903F00F03DBB2022B02D04FF034
:1035900001031CE0FB68DB88002B16D10F4B1B7866
:1035A000DBB203F10103DAB20C4B1A70FB683A6824
:1035B0001A60FB684FF00102DA80F86801F06AFED9
:1035C000FEF770F94FF0000301E04FF007031846D3
:1035D00007F11007BD4680BD443A00208209002053
:1035E00080B584B000AF0346FB71FB79012B02D993
:1035F0004FF0000330E0FB794FF0010202FA03F3D1
:103600001A46184B1B6802EA0303002B02D14FF045
:10361000000321E0FB794FEA0312134BD318FB6040
:10362000124B1B78DBB203F10103DAB20F4B1A70B5
:10363000FB685B68002B04D1FEF734F94FF0000300
:103640000AE0FB685B68BB60BB681B681A46FB68E6
:103650005A60FEF727F9BB68184607F11007BD4608
:1036600080BD00BF383A0020183A002082090020AF
:1036700080B584B000AF03463960FB71FB79012B44
:1036800002D94FF0010357E0FB794FF0010202FA33
:1036900003F31A462B4B1B6802EA0303002B02D1EB
:1036A0004FF0010348E03B68002B02D14FF00203CA
:1036B00042E0FB794FEA0312234BD318FB603A68D0
:1036C000FB681B689A4202D24FF0020334E03A686A
:1036D000FB681968FB689B68F868C06800FB03F327
:1036E000CB189A4202D94FF0020325E03A68FB68F2
:1036F0001B68D31AFA689268B3FBF2F102FB01F27D
:103700009B1A002B02D04FF0020315E03B68BB6010
:103710000E4B1B78DBB203F10103DAB20B4B1A70CC
:10372000FB685B681A46BB681A603A68FB685A60B7
:10373000FEF7B8F84FF00003184607F11007BD4632
:1037400080BD00BF383A0020183A002082090020CE
:1037500080B584B000AF786002F0BEF8B860134B5B
:103760004FF000021A70B86802F0BEF8104B1B68E8
:10377000FB6013E0FB68DB6F002B0CD00D4802F000
:10378000BDF8FB68DB6F1846FDF76AFDFB684FF07C
:103790000002DA6705E0FB68DB68FB60FB68002B72
:1037A000E8D107F11007BD4680BD00BF3C3A0020BC
:1037B000D43D0020E89A000080B582B000AF02F04E
:1037C0008BF87860124B1B78FB70114B4FF00102A5
:1037D0001A70786802F088F8FB78002B13D10D4836
:1037E0004FF000014FF00002FEF7A2FF0346002B4E
:1037F00009D002F071F87860054B4FF000021A70A2
:10380000786802F071F807F10807BD4680BD00BF77
:103810003C3A00205137000080B588B000AF134615
:103820000246FA710A46BA80FB70BB888D48194679
:1038300002F064F84FF00003FB82FB79032B18D8E9
:1038400001A252F823F000BF59380000613800008F
:103850006938000079380000FB8A03F11403FB8209
:10386000FB8A03F11403FB82FB8A03F11003FB8242
:1038700003E04FF000030EE100BFFB78032B00F2E2
:10388000EE8001A252F823F0A13900000D3A0000A9
:103890000D3A0000993800004FF00C00FEF788FC4C
:1038A0000346FB617048F96902F028F8FB69002BB8
:1038B00004D1FFF781FF4FF00003ECE0FB69FA78D9
:1038C0001A73FB694FF000021A60FB8A03F11003C0
:1038D000FA69D31803F1030323F003031A46FB69C3
:1038E0005A60FB69BA881A81FB8A03F1030323F04B
:1038F0000303C3F58072BB889A42B8BF13469AB2DD
:10390000FB695A81FB694FF00102DA81FB69BB61F7
:10391000BA88FB695B89D31A3B613DE04FF00C002C
:10392000FEF746FC0346FB60FB68002B07D1FFF760
:1039300043FFF86900F046F94FF00003ABE0FB6885
:10394000FA781A73FB684FF000025A73FB684FF065
:1039500000021A60BB69FA681A603B699AB2FB6898
:103960001A813B699BB2FF2B02D83B699BB201E0F5
:103970004FF48073FA685381FB6803F11002FB680F
:103980005A60FB684FF00102DA81FB685B893A6993
:10399000D31A3B61FB68BB613B69002BBEDC6BE06B
:1039A000FB8A03F113039BB223F003039AB2BB8893
:1039B00003F103039BB223F003039BB2D3189BB222
:1039C0001846FCF74DFC0346FB61FB69002B02D156
:1039D0004FF000035FE0FB8A03F11003FA69D3188C
:1039E00003F1030323F003031A46FB695A60FB69E2
:1039F000BA881A81FB691A89FB695A81FB694FF001
:103A000000021A60FB69FA781A7335E04FF00B0078
:103A1000FEF7CEFB0346FB61FB69002B0CD1FB7864
:103A2000012B01D1114B00E0114B1248194601F056
:103A300065FF4FF000032EE0FB694FF000025A6073
:103A4000FB69BA881A81FB691A89FB695A81FB698B
:103A50004FF000021A60FB69FA781A730CE04FF01D
:103A6000000318E0189B0000309B0000509B0000F2
:103A7000549B0000589B0000FB694FF00102DA8163
:103A8000FB694FF000025A73BB8805481946FA6972
:103A900001F034FFFB69184607F12007BD4680BDE1
:103AA000909B000080B584B000AF78600B467B80AF
:103AB000B7F90230002B02D07B68002B02D14FF007
:103AC000000375E0B7F90230002B0BDA7B88C3F1F5
:103AD0000003FB817B685B89FA899A4204D94FF025
:103AE000010365E07B88FB817B681B7BBB817B6876
:103AF0005B68BB60BB89002B02D0BB89032B20D144
:103B00007B685A68B7F90230C3F10003D2187B68AA
:103B10005A607B685B681A467B6803F110039A421F
:103B20002ED27B685A687B6803F110032348114644
:103B30001A4601F0E3FE7B68BA685A604FF0010351
:103B400036E0BB89022B02D0BB89012B15D1B7F916
:103B50000230002B0EDA7B685B89FA899A4209D819
:103B60007B685A68B7F90230C3F10003D2187B684A
:103B70005A6005E04FF001031AE04FF0010317E02F
:103B80007B685A897B88D3189AB27B685A817B6894
:103B90001A897B88D3189AB27B681A817B685A6825
:103BA000B7F902300648B96801F0A8FE4FF00003EB
:103BB000184607F11007BD4680BD00BFB09B00004E
:103BC000F89B000080B588B000AF78607B68002B60
:103BD00005D1334801F092FE4FF000035BE031481D
:103BE000796801F08BFE7B681B7B002B06D07B681D
:103BF0001B7B012B02D07B681B7B022B4FF0000349
:103C0000FB7744E001F068FEB8617B68DB8903F173
:103C1000FF339AB27B68DA817B68DB89FB82B86903
:103C200001F062FEFB8A002B28D17B681B683B6198
:103C30001D48796801F062FE7B681B7BFB81FB8974
:103C4000032B05D14FF00C007968FEF753FB0EE013
:103C5000FB89012B02D0FB89022B05D14FF00B0011
:103C60007968FEF747FB02E07868FCF789FAFB7F8A
:103C700003F10103FB773B697B6008E0FB8A0B489B
:103C800079681A4601F03AFE4FF000037B607B68CA
:103C9000002BB7D1FB7F184607F12007BD4680BD3A
:103CA0001C9C0000409C0000509C00006C9C00008C
:103CB00080B485B000AF78604FF00003FB7306E07E
:103CC000FB7B03F10103FB737B681B687B607B68F4
:103CD000002BF5D1FB7B184607F11407BD4680BCCD
:103CE000704700BF80B485B000AF786039607B68F2
:103CF000002B1FD03B68002B1CD07B68FB600AE0C8
:103D0000FB681A893B681B89D3189AB2FB681A8131
:103D1000FB681B68FB60FB681B68002BF0D1FB682D
:103D20001A893B681B89D3189AB2FB681A81FB6811
:103D30003A681A6007F11407BD4680BC704700BF9F
:103D400080B584B000AF786039604FF00003FB812C
:103D50004FF00003BB81424879683A6801F0CEFD1C
:103D60007B68002B08D03B68002B05D07B681A8944
:103D70003B681B899A4202D24FF0F6036AE07B68E7
:103D80005B891A46FB89D21A3B685B891946BB8955
:103D9000CB1A9A4205DB3B685A89BB89D31A7B81CF
:103DA00004E07B685A89FB89D31A7B817B685A6857
:103DB000FB89D1183B685A68BB89D2187B890846B1
:103DC00011461A4605F05AF8FA897B89D318FB8107
:103DD000BA897B89D318BB817B685B89FA899A424F
:103DE00005D14FF00003FB817B681B687B603B685B
:103DF0005B89BA899A4205D34FF00003BB813B68C7
:103E00001B683B603B68002B0CD03B685A893B68C1
:103E10001B899A4206D13B681B68002B02D04FF0E9
:103E2000F70317E07B68002B0CD07B685A897B680E
:103E30001B899A4206D17B681B68002B02D04FF089
:103E4000F70307E03B68002B99D1064801F056FDC7
:103E50004FF000035BB2184607F11007BD4680BD66
:103E6000149D0000289D000080B483B000AF03467D
:103E7000FB80FB884FEA03239AB2FB884FEA1323A7
:103E80009BB29BB242EA03039BB29BB2184607F176
:103E90000C07BD4680BC704780B582B000AF0346BA
:103EA000FB80FB881846FFF7DFFF0346184607F143
:103EB0000807BD4680BD00BF80B483B000AF786006
:103EC0007B684FEA03627B6803F47F434FEA032376
:103ED0001A437B6803F47F034FEA13231A437B687A
:103EE0004FEA136342EA0303184607F10C07BD4685
:103EF00080BC704780B582B000AF78607868FFF70B
:103F0000DBFF0346184607F10807BD4680BD00BF2A
:103F100080B483B000AF78607B6893F82D3003F0F5
:103F20000103DBB2184607F10C07BD4680BC7047A1
:103F300080B485B000AF786039603B68002B67D0F3
:103F4000364B1B68002B06D17B683A681A62334BEC
:103F50007A681A6053E0314B1B68BB603B68FB60BA
:103F60004AE0FA68BB681B6AD31AFB60FB68002B47
:103F70002EDABB689B6A002B0ED0BB689B6A7A68FE
:103F80005A62BB689A6A7B689A627B68BA685A62AE
:103F9000BB687A689A620AE0204B1A687B685A62AA
:103FA0001E4B1B687A689A621C4B7A681A607B68A1
:103FB0005B6A1A6AFB68D2187B681A627B685B6A64
:103FC0007A68526A116A7A68126A8A1A1A6216E064
:103FD000FB68002B0DDBBB685B6A002B09D17B689B
:103FE000BA689A62BB687A685A62FA687B681A6231
:103FF00005E0BB685B6ABB60BB68002BB1D17B6826
:104000004FF002025A71064B4FF001021A7000E0A5
:1040100000BF07F11407BD4680BC7047403A00203E
:104020008309002080B483B000AF78607B689B6A0E
:10403000002B08D17B685B6A002B04D1284B4FF022
:1040400000021A6043E07B689B6A002B16D17B68F4
:104050005A6A234B1A607B685B6A7A68526A116AF3
:104060007A68126A8A181A627B685B6A4FF00002EB
:104070009A627B684FF000025A6228E07B685B6AB4
:10408000002B09D17B689B6A4FF000025A627B6863
:104090004FF000029A621AE07B689B6A7A68526A63
:1040A0005A627B685B6A7A68926A9A627B685B6A2A
:1040B0007A68526A116A7A68126A8A181A627B6888
:1040C0004FF000025A627B684FF000029A627B68F0
:1040D0004FF0FF321A6207F10C07BD4680BC7047F3
:1040E000403A002080B400AF034BD3E900231046D0
:1040F0001946BD4680BC7047C83D002080B582B0DF
:1041000000AF1C4B1B687B6028E07B681B7AFF2B91
:1041100002D0786801F052F97B68DB69002B04D08B
:104120007B68DB69184602F0B9F97B684FF0FF3213
:104130001A627B685A6A0F4B1A607B684FF0000264
:104140005A627868FEF7A2FB0A4B1B687B607B68AB
:10415000002B03D07B684FF000029A627B68002B33
:1041600003D07B681B6A002BCFD007F10807BD4640
:1041700080BD00BF403A002080B500AF084B1B78DF
:10418000DBB2012B08D9074B4FF001021A70064B26
:104190004FF001021A7001E0FFF7B0FF80BD00BFD1
:1041A00082090020CC370020CD37002080B588B0B0
:1041B00000AFF860B9607A603B60FB68BB61BB69C7
:1041C000002B6BD0BB699B7AFF2B67D07B681B8968
:1041D0004FF0030019464FF00002FFF71DFBF86196
:1041E000FB69002B0CD0F8697968FFF7A9FD03463D
:1041F000002B05D0F869FFF7E5FC4FF00003FB61E9
:10420000FB69002B4AD04FF00500FDF7D1FF0346B4
:104210007B617B69002B05D1F869FFF7D3FC4FF078
:1042200000033DE07B69FA691A607B69FA695A60AC
:10423000FB695B6803F10C027B699A60BB681B7CBD
:104240001A467B699A81BB699B7A1846796901F0A5
:1042500085F90346002B05D07869FEF7CDF94FF0BC
:1042600000031DE001F038FB3861BB691B8A9AB27C
:10427000FB691B89D3189BB29AB2BB691A82386951
:1042800001F032FBBB69DB69002B07D0BB69DB693E
:10429000FA691289B8694FF0000198474FF000039E
:1042A000184607F12007BD4680BD00BF80B588B025
:1042B00000AFF860B9607A603B60FB68FB61FB6946
:1042C000002B03D0FB699B7AFF2B03D17868FFF7A3
:1042D00079FC41E04FF00500FDF76AFF0346BB6142
:1042E000BB69002B03D17868FFF76CFC34E0BB6935
:1042F0007A681A60BB697A685A60BB693A689A60E2
:10430000BB693A8D9A81FB699B7A1846B96901F0BD
:1043100025F90346002B03D0B869FEF76DF91BE0C1
:1043200001F0DAFA7861FB691B8A9AB27B681B8913
:10433000D3189BB29AB2FB691A82786901F0D4FA59
:10434000FB69DB69002B07D0FB69DB697A6812899E
:10435000F8694FF00001984707F12007BD4680BD7E
:1043600080B588B000AFF860B9607A60FB70FB6818
:10437000BB61BB69002B03D0BB699B7AFF2B02D1C9
:104380004FF0F70334E0BB69FA781A727B68002BB0
:1043900012D07B681B89FB8301F09EFA7861BB69B0
:1043A0001B8A9AB2FB8BD3189BB29AB2BB691A8252
:1043B000786901F099FA02E04FF00003FB83BB69D2
:1043C0009B7A1846796801F0C9F80346002B02D0A1
:1043D0004FF0FF030CE0BB69DB69002B06D0BB6923
:1043E000DB69FA8BB8694FF0000198474FF0000382
:1043F0005BB2184607F12007BD4680BD80B584B08A
:1044000000AF786039607B68FB60FB685B78012BEC
:1044100003D1F86800F094FC06E0FB685B78042B9D
:1044200002D1F86800F08CFA4FF000035BB2184636
:1044300007F11007BD4680BD80B586B000AFF860BB
:10444000B9601346FB80FB687B617B695B78012B5D
:1044500003D1786900F074FC06E07B695B78042B7B
:1044600002D1786900F06CFA7B69002B16D07B6969
:104470005B68002B12D07B695B68B3F86E2040F656
:10448000B8339A420AD97B69DB69002B06D07B6975
:10449000DB69FA8878694FF0020198474FF0000312
:1044A0005BB2184607F11807BD4680BD80B584B0E1
:1044B00000AF78600B46FB707B68FB60FB684FF0D9
:1044C00000025A60FB68FA781A72FB689B7AFF2B2D
:1044D00012D0FB68DB69002B07D0FB68DB69F8684A
:1044E0004FF000014FF000029847FB689B7A184696
:1044F0004FF0000101F022F8FB685B7AFF2B0CD033
:10450000FB685B78032B08D1FB684FF000025A7000
:10451000FB685B7A184601F03BF9FB68DB7AFF2BFE
:1045200012D0FB68DB69002B07D0FB68DB69F868F9
:104530004FF000014FF000029847FB68DB7A184605
:104540004FF0000100F0FAFFFB685B78012B03D00D
:10455000FB685B78042B08D1FB684FF000025A70AF
:10456000FB685B7A184601F013F907F11007BD46A6
:1045700080BD00BF80B584B000AF78607B685B68A9
:10458000FB60F8687968FDF721F8F8680A49FDF7DB
:104590002BF8F8680949FDF735F8F86808494FF035
:1045A0000402FDF759F8F8680649FDF739F807F1F4
:1045B0001007BD4680BD00BF6143000039440000C4
:1045C000FD430000AD44000080B586B000AFF86048
:1045D000B9601346FB71BB681B7C1846FDF728F9D0
:1045E000FB687B617B69DB7AFF2B02D14FF0F7031D
:1045F00038E07B691A787B69DB691046194600F060
:10460000D3F838613B69002B02D14FF0FF0329E05A
:104610003B69BA685A603869FFF7ACFF3B69FA79C1
:104620001A727B69DB7A1846396900F097FF0346F6
:10463000002B09D03B694FF000025A60386900F046
:1046400021F94FF0FF030DE07B69DB69002B07D0F8
:104650007B69DB6978694FF000014FF000029847F1
:104660004FF000035BB2184607F11807BD4680BD46
:1046700090B583B000AF78607B681B684FF0000294
:104680001A727B681B681B7803F0F003202B23D081
:10469000402B02D0102B46D05CE07B681C687B6806
:1046A0001B79184604F0BAFB034663607B681B68FD
:1046B0005B68002B05D17B681B684FF0FF021A7204
:1046C0004EE07B681B685A687B681B681046294966
:1046D0001A4604F05FFB43E07B681C6802F068FB4D
:1046E000034663607B681B685B68002B05D17B68B1
:1046F0001B684FF0FF021A7232E07B681B681B7860
:10470000222B05D17B681B685B684FF001021A748D
:104710007B681B685A687B681B68104616491A46F6
:1047200002F002FB1CE07B681C68FCF745FF0346B7
:1047300063607B681B685B68002B05D17B681B6826
:104740004FF0FF021A720BE07B681B681846FFF7F8
:1047500011FF05E07B681B684FF0F7021A7200BF7B
:104760007B681B681B7A5BB2184607F10C07BD46D5
:1047700090BD00BFAD410000AD42000080B582B0E9
:1047800000AF78607B681B685B68002B02D178689B
:10479000FFF76EFF7B681B685B7A184600F0F8FF36
:1047A00007F10807BD4680BD80B584B000AF034661
:1047B0003960FB714FF00600FDF7FAFC0346FB6021
:1047C000FB68002B02D14FF0000355E0FB684FF06F
:1047D00000021A72FB68FA791A70FB684FF0000247
:1047E0005A604FF00003BB604FF0000000F064FF20
:1047F00003461A46FB685A72FB685B7AFF2B07D1A7
:104800004FF00600F968FDF775FD4FF0000333E047
:10481000B86800F03DFE03461A46FB689A72FB68D2
:104820009B7AFF2B0CD1FB685B7A184600F0BEFF29
:104830004FF00600F968FDF75DFD4FF000031BE047
:10484000FB684FF0FF02DA72FB684FF000025A700B
:10485000FB684FF0FF32DA60FB683A68DA61FB68A8
:104860004FF000021A82FB684FF000025A61FB68A9
:104870004FF000029A61FB68184607F11007BD4629
:1048800080BD00BF80B584B000AF78607B689B7A44
:10489000FF2B25D00FE07B681B78102B07D1FB681E
:1048A000002B08D0FB681846FFF78CF903E0FB6883
:1048B0001846FDF7A1FE7B689A7A07F10C031046B3
:1048C000194600F0D1FE0346B3F1FF3FE3D17B6808
:1048D0009B7A184600F00CFE7B684FF0FF029A723C
:1048E0007B68DB7AFF2B19D003E0FB68184602F0E7
:1048F000D1FC7B68DA7A07F10C031046194600F008
:10490000B3FE0346B3F1FF3FEFD17B68DB7A184675
:1049100000F0EEFD7B684FF0FF02DA727B685B7A95
:10492000184600F043FF7B684FF0FF025A724FF0C9
:1049300006007968FDF7DEFC07F11007BD4680BD73
:1049400080B584B000AF78607B685B6818464FF034
:104950000001FCF73BFE7B685B681B7C012B07D1E9
:104960007B685B6818464FF00001FCF767FE24E0A7
:104970007B685B6818464FF00001FCF735FE7B68EA
:104980005B6818464FF00001FCF758FE7B685B68D7
:1049900018464FF00001FCF735FE7B685B6818464F
:1049A0004FF000014FF00402FCF756FE7B685B6895
:1049B00018464FF00001FCF733FE7B685B68184631
:1049C000FBF7A6FD0346FB7397F90F30002B29D1A7
:1049D0007B684FF000025A707B684FF000025A600B
:1049E0007B684FF000021A727B68DB69002B07D0EE
:1049F0007B68DB6978684FF000014FF00002984750
:104A00007B68DB69002B07D07B68DB6978684FF037
:104A100002014FF0000298477B685B7A184600F06D
:104A2000B7FE19E07B685B6818460D49FCF7EAFDA4
:104A30007B685B6818460B494FF00402FCF70CFEDC
:104A40007B685B6818460849FCF7EAFD7B685B6891
:104A500018467968FCF7BAFD07F11007BD4680BD1E
:104A600039440000FD430000AD44000080B582B031
:104A700000AF78607B681B685B68002B2AD07B687E
:104A80001B681B7803F0F003202B0BD0402B02D0C7
:104A9000102B14D01EE07B681B685B68184604F07E
:104AA0008BF917E07B681B685B684FF00002DA61E6
:104AB0007B681B685B68184602F048F90AE07B686F
:104AC0001B684FF004025A707B681B681846FFF79A
:104AD00037FF2AE07B681B68DB69002B0AD07B6804
:104AE0001B68DB697A68126810464FF000014FF0CE
:104AF000000298477B681B68DB69002B0AD07B6843
:104B00001B68DB697A68126810464FF002014FF0AB
:104B1000000298477B681B685B7AFF2B05D07B6897
:104B20001B685B7A184600F033FE07F10807BD46A4
:104B300080BD00BF90B583B000AF78607B681B6814
:104B40001B7A5BB213F1040F46DB7B681B685B6862
:104B5000002B3CD07B681B681B7803F0F003202BF4
:104B600012D0402B02D0102B1FD035E07B681C6880
:104B70007B681B685A687B685B681046194604F0BE
:104B8000F1F80346237227E07B681C687B681B688A
:104B900059687B685A687B681B89084611461A4623
:104BA00001F0CCFF0346237216E07B681C687B682B
:104BB0001B6859687B685A687B681B8908461146E0
:104BC0001A46FBF7F7FD0346237200BF04E07B683B
:104BD0001B684FF0F7021A727B681B685B7A1846F5
:104BE00000F0D6FD07F10C07BD4690BD90B585B02D
:104BF00000AF78607B681B681B7A5BB213F1040F0F
:104C00006ADB7B681B685B68002B65D07B681B6870
:104C10001B78102B60D17B681B685B681B7C002BAA
:104C200055D17B681B685B6818464FF0FF01FBF7A6
:104C30009FFEF860FB68002B05D17B681B684FF076
:104C4000FF021A7248E07B681B689B7AFF2B0AD030
:104C50007B681B689B7A184600F04AFC7B681B68DF
:104C60004FF0FF029A727B681B68DB7AFF2B0FD133
:104C70007B681C684FF0000000F00AFC0346E372FA
:104C8000E37AFF2B04D17B681B684FF0FF021A7296
:104C90007B681B681B7A002B1ED17B681B684FF05A
:104CA00002025A707B681B68FA685A607B681B684E
:104CB0005A687B681B6810461946FCF787FC7B68BE
:104CC0001B685B6818460949FCF7B8FC04E07B6880
:104CD0001B684FF0F8021A727B681B685B7A1846F3
:104CE00000F056FD07F11407BD4690BDC945000010
:104CF00080B582B000AF78607B681B681B7A5BB2BE
:104D000013F1040F12DB7B681B685B68002B0DD06E
:104D10007B681B681B78102B08D17B681B685A685E
:104D20007B689B8810461946FBF7F4FE7B681B687E
:104D30005B7A184600F02CFD07F10807BD4680BDE0
:104D400080B586B000AF78604FF000037B757B685C
:104D50005B695A687B689B69D3183B617B685B69B8
:104D60009A687B689B69D31AFB60FA684FF6FF73F9
:104D70009A4203D94FF6FF73FB8201E0FB68FB8286
:104D80007B685B68B3F86E307B817A89FB8A9A42D4
:104D900001D27B89FB827B6859687B685B691B7BDE
:104DA000FA8A0846396902F011FE03467B7297F9C8
:104DB0000930002B61D17B689A69FB8AD2187B6825
:104DC0009A617B689A697B685B699B689A420ED19D
:104DD0004FF001037B757B684FF000025A617B68DE
:104DE0004FF000029A617B684FF000025A707B68B6
:104DF0005B689B6F002B1BD07B685B6893F822304D
:104E000003F04403002B13D17B685B685B6F002BBE
:104E100015D07B685B685B6F1B68002B08D17B68D3
:104E20005B685B6F9A897B685B681B8F9A4206D3CD
:104E30007B685B68184603F039FA034601E04FF0DF
:104E400000037B727B687A7A1A7297F90930002B1B
:104E500026D17B685B68B3F86E2040F6B8339A427F
:104E60001ED87B68DB69002B1AD07B68DB69FA8A65
:104E700078684FF00301984712E097F90930B3F1D1
:104E8000FF3F07D17B685B68184603F00FFA0346C3
:104E90007B7205E07B687A7A1A724FF001037B75AA
:104EA0007B7D002B08D07B684FF000025A707B6836
:104EB0005B7A184600F06CFC4FF000035BB21846BA
:104EC00007F11807BD4680BD80B582B000AF78609D
:104ED0007B681B681B7A5BB213F1040F26DB7B68CF
:104EE0001B685B68002B1CD07B681B681B78102B31
:104EF00017D17B681B684FF001025A707B681B68F2
:104F00005B69002B7B681B687A685A617B681B6849
:104F10004FF000029A617B681B681846FFF710FF8C
:104F20000AE07B681B684FF0F7021A727B681B6807
:104F30005B7A184600F02CFC07F10807BD4680BDDF
:104F400080B582B000AF78607B681B685B68002B1F
:104F50000FD07B681B681B78102B0AD17B681B68FD
:104F60004FF004025A707B681B681846FFF7E8FC94
:104F70000AE07B681B684FF0F7021A727B681B68B7
:104F80005B7A184600F004FC07F10807BD4680BDB7
:104F900080B485B000AF4FF00003FB731B4BBB60C8
:104FA0001B4B7B6018E0BB687A681A60BB68FA7BB1
:104FB0001A71BA6853794FF0040161F30303537116
:104FC000BB6803F11003BB607B6803F110037B60D7
:104FD000FB7B03F10103FB73FB7B122BE3D9BA6864
:104FE00053794FF0040161F303035371BB684FF031
:104FF00000021A60BB68FA7B1A71064B034A1A60FA
:1050000007F11407BD4680BC704700BF443A00203A
:10501000543A0020843B002080B582B000AF786015
:105020007A6853794FF0040161F3030353710A4B1B
:105030001B78DBB203F10103DAB2074B1A70074B9E
:105040001A687B681A60054B7A681A60FCF72AFCBC
:1050500007F10807BD4680BD82090020843B00207F
:1050600080B584B000AF0B463A600246FA71BB715E
:105070001D4B1B78DBB203F10103DAB21A4B1A7035
:105080001A4B1B68002B04D1FCF70CFC4FF00003FB
:1050900024E0164B1B68FB60144B1B681B681A4608
:1050A000124B1A60FCF7FEFBFB7903F00F03D9B239
:1050B000FA68537961F303035371BB7903F00F036B
:1050C000D9B2FA68537961F307135371FB683A68F0
:1050D0001A60FB684FF00002DA60FB68184607F1BF
:1050E0001007BD4680BD00BF82090020843B002020
:1050F00080B584B000AF78600B46FB70FB78002B66
:105100000AD17B68DB68002B02D04FF0040334E047
:105110007868FFF781FF2EE0FB78012B2BD1194B2C
:105120001B78DBB203F10103DAB2164B1A7019E0F7
:105130007B68DB68FB60FB681B6AB3F1FF3F02D052
:10514000F868FEF76FFFFB685A697B68DA60FB68F6
:105150004FF000025A61FB684FF0FF021A72F868C4
:10516000FDF794FB7B68DB68002BE1D1FCF79AFB31
:105170007868FFF751FF4FF00003184607F110075A
:10518000BD4680BD8209002080B584B000AF786044
:1051900039603E4B1B78DBB203F10103DAB23B4BC3
:1051A0001A707B68DB68FB607B681A793B681A724F
:1051B0007B685B7923F00F03DBB2102B16D1FB6801
:1051C000002B07D17B683A68DA6050E0FB685B69C6
:1051D000FB6000E000BFFB685B69002BF6D1FB6859
:1051E0003A685A613B68FA689A6140E07B685B798B
:1051F00023F00F03DBB2202B39D1FB68002B03D146
:105200007B683A68DA6032E0FB681A793B681B79A0
:105210009A4209D97B683A68DA603B68FA685A6151
:10522000FB683A689A6122E0FB685B69BB600AE050
:10523000BB681A793B681B799A4208D8BB68FB6047
:10524000BB685B69BB60BB68002BF1D100E000BFAD
:10525000FB683A685A613B68FA689A613B68BA68C9
:105260005A61BB68002B02D0BB683A689A613B6800
:105270004FF002025A71064B4FF001021A70FCF710
:1052800011FB07F11007BD4680BD00BF8209002059
:105290008309002080B584B000AF78607B68DB684C
:1052A000FB60FB68002B00F08180FB685A697B681B
:1052B000DA607B68DB68002B04D07B68DB684FF02A
:1052C00000029A61FB684FF000025A61FB684FF0E0
:1052D000FF021A72FB681B6AB3F1FF3F02D0F86845
:1052E000FEF7A0FE7B685B7903F00F03DBB2022BB5
:1052F0000FD17B681A68FB681A617B684FF0000267
:105300001A607B68DB8803F1FF339AB27B68DA802E
:105310003EE07B685B7903F00F03DBB2032B25D102
:105320007B681B68BB60BB681A68BB68DB884FEA98
:105330008303D3181A68FB681A61BB68DB8803F122
:1053400001039AB2BB68DA80BB689B8903F1FF3323
:105350009AB2BB689A81BB68DA88BB685B899A425B
:1053600016D1BB684FF00002DA8011E07B685B79F0
:1053700003F00F03DBB2012B0AD17B68DB8803F15A
:10538000FF339AB27B68DA80FB684FF0FF321A6114
:10539000094B1B68FA689A4204D1FB684FF001027E
:1053A0005A7104E0F868FDF771FA00E000BF07F1F8
:1053B0001007BD4680BD00BF9037002080B485B087
:1053C00000AF78607B681B7A4FEA0312254BD31835
:1053D000FB607B685B69002B08D17B689B69002BB5
:1053E00004D1FB684FF00002DA6031E07B689B6912
:1053F000002B0DD17B685B694FF000029A617B68DE
:105400005A69FB68DA607B684FF000025A611FE05E
:105410007B685B69002B09D17B689B694FF00002B8
:105420005A617B684FF000029A6111E07B689B69CA
:105430007A6852695A617B685B697A6892699A6195
:105440007B684FF000029A617B684FF000025A615E
:105450007B684FF0FF021A7207F11407BD4680BC4B
:10546000704700BF443A0020ABBE01E00020704707
:10547000002A00D010600120704706980188034A76
:10548000914202D1043006907047FEE7ABBE0000A7
:1054900080B584B000AF7860144B1B78FF2B1DD013
:1054A000124B1B781846FEF79BF8F860FB68002B40
:1054B00014D0FB6818464FF00A014FF0020200F0CA
:1054C000B1FC0346FB72FB7AFF2B05D1074B1B781F
:1054D0001846F968FEF7CCF8FB7A01E04FF0FF03BD
:1054E000184607F11007BD4680BD00BF183D0020DB
:1054F00080B584B000AF0346FB71FB79FF2B14D05D
:10550000FB790C4A4FEA0313D3181B681B68FB6036
:10551000FB7918464FF0010100F01AFD064B1B788D
:105520001846F968FEF7A4F800E000BF07F110077D
:10553000BD4680BD443A0020183D002080B582B0B1
:1055400000AF03463960FB71FB791846396800F0FB
:105550008BFE07F10807BD4680BD00BF80B584B053
:1055600000AF03463960FB71FB791846396800F0DB
:105570007BFE0346002B0CD04FF0FF03FB730A4B5E
:10558000B3F8263103F101039AB2074BA3F82621A1
:1055900002E04FF00003FB73FB7B5BB2184607F1A0
:1055A0001007BD4680BD00BF2841002080B58AB0ED
:1055B00000AF0346B9607A60FB737B684FF064020A
:1055C00002FB03F2264BA3FB02134FEA93137B6209
:1055D0007B6A002B05D17B68002B02D04FF00103C2
:1055E0007B62FEF77FFD02460B4613463B62FA7B69
:1055F00007F113031046796A1A4600F071FDF8614D
:105600007B6A002B0CD0FB7C002B09D0BB68002BE5
:1056100003D0BB684FF000021A604FF0FF3319E06F
:10562000FEF760FD02460B461346BB61BB68002BCC
:1056300002D0BB68FA691A60BA693B6AD31A4FF4A0
:105640007A7202FB03F2074BA3FB02134FEA5313D8
:105650007B617B69184607F12807BD4680BD00BF06
:10566000D34D62101F85EB5180B584B000AF034667
:105670003960FB71FA7907F10B031046194600F007
:10568000C1FCF860FB7A002B08D13B68002B02D0EC
:105690003B68FA681A604FF0000308E03B68002B93
:1056A00003D03B684FF000021A604FF0FF331846FA
:1056B00007F11007BD4680BD80B584B000AF03463A
:1056C000FB71FB799BB218464FF6FF714FF0020257
:1056D00001F0ACFF0346FB73FB7B184607F1100794
:1056E000BD4680BD80B588B000AF03463960FB7110
:1056F0003B684FF0640202FB03F2234BA3FB02134F
:105700004FEA9313FB61FB69002B05D13B68002B2B
:1057100002D04FF00103FB61FA694FF6FF739A4222
:1057200002D94FF6FF73FB61FEF7DCFC02460B4625
:105730001346BB61FB791846F96901F0D7FF0346B0
:10574000FB75FB69002B05D0FB7D002B02D04FF0D1
:10575000FF3313E0FEF7C6FC02460B4613463B61DF
:105760003A69BB69D31A4FF47A7202FB03F2074B12
:10577000A3FB02134FEA5313FB60FB68184607F1C3
:105780002007BD4680BD00BFD34D62101F85EB5181
:1057900080B582B000AF0346FB71FB79184602F07A
:1057A00029F807F10807BD4680BD00BF80B582B06B
:1057B00000AF0346FB71FB7918464FF0010101F081
:1057C0006BFF07F10807BD4680BD00BF80B582B002
:1057D00000AFFDF7A9FA0346BB714FF00003FB7160
:1057E00012E0FB791B4A4FEAC303D3181B79BA793D
:1057F0009A4205D1FB794FEAC302164BD31824E035
:10580000FB7903F10103FB71FB79022BE9D9124B00
:105810001B78022B17D8104B1B780E4A4FEAC30394
:10582000D318BA791A710C4B1B7803F10103DAB261
:10583000094B1A70084B1B7803F1FF334FEAC30280
:10584000044BD31801E04FF00003184607F1080796
:10585000BD4680BD1C3D0020343D002080B586B093
:1058600000AFF860B9607A603B60184B1B78022B80
:1058700024D83B684FEA0322154B02EA03033A6A35
:1058800013431A467B68B8684FF00001FDF7A6F98C
:105890000346FB75FB7DFF2B10D00C4B1B780D4A8C
:1058A0004FEAC303D318FA7D1A71084B1B7803F132
:1058B0000103DAB2054B1A70FB7D01E04FF0FF03E4
:1058C000184607F11807BD4680BD00BF343D0020D3
:1058D00000FF0F001C3D002080B500AFFCF70AF868
:1058E0004FF00003184680BD80B582B000AF7860ED
:1058F000FCF710F807F10807BD4680BD0FB480B46F
:1059000000AFBD4680BC04B0704700BF80B483B018
:1059100000AF7860034B7A681A6007F10C07BD4648
:1059200080BC7047403D002080B489B000AFBA60B1
:105930007B600346FB810B46BB81FB894FEA132347
:105940009BB2FB75FB89BB75214B1B68FB614FF05C
:105950000003BB6130E0FB6903F101031B78FA7DB2
:105960009A4224D1BA7DBB699A421CD17B68FA69FC
:105970001A60FB7D022B0ED1FB6903F102031B7839
:105980001A46FB6903F103031B784FEA03231A430A
:10599000BB681A6004E0FB691B781A46BB681A6092
:1059A0004FF001030EE0BB6903F10103BB61FB692A
:1059B0001B78FA69D318FB61FB691B78002BCAD1ED
:1059C0004FF00003184607F12407BD4680BC70471E
:1059D000403D002080B586B000AF02460B46FA710C
:1059E000BB71FB79002B04D14FF0000001F026F8C9
:1059F00055E02E4B1B687B614FF0FF03FB744FF0AB
:105A0000FF03BB7443E07B6903F101031B78042BA4
:105A100009D0052B0DD0022B2FD17B6903F1050393
:105A20001B78FB742EE07B6903F103031B78BB74C6
:105A300028E0FA7CFB799A4221D1BA7CBB799A4260
:105A40001FD17B6903F102031B787B747B6903F12F
:105A500004031B781A467B6903F105031B784FEAA0
:105A600003239BB242EA03039BB2FB817A7CFB894E
:105A70001046194600F00EFE04E000BF02E000BF31
:105A800000E000BF7B691B787A69D3187B617B6972
:105A90001B78002BB7D14FF0010000F0CFFF4FF083
:105AA0000103184607F11807BD4680BD403D0020A0
:105AB00080B586B000AFF860B9607A607B681B681B
:105AC0007B61FB685B78092B5BD801A252F823F05D
:105AD000F95A0000775B0000835B0000775B0000F1
